{
  "_format": "hh-sol-artifact-1",
  "contractName": "Factiiv",
  "sourceName": "contracts/Factiiv.sol",
  "abi": [
    {
      "inputs": [
        {
          "internalType": "address",
          "name": "root",
          "type": "address"
        },
        {
          "internalType": "address",
          "name": "forwarder",
          "type": "address"
        }
      ],
      "stateMutability": "nonpayable",
      "type": "constructor"
    },
    {
      "anonymous": false,
      "inputs": [
        {
          "indexed": true,
          "internalType": "address",
          "name": "from",
          "type": "address"
        },
        {
          "indexed": true,
          "internalType": "bytes32",
          "name": "id",
          "type": "bytes32"
        }
      ],
      "name": "DeleteRelationship",
      "type": "event"
    },
    {
      "anonymous": false,
      "inputs": [
        {
          "indexed": true,
          "internalType": "address",
          "name": "signer",
          "type": "address"
        },
        {
          "indexed": true,
          "internalType": "address",
          "name": "user",
          "type": "address"
        },
        {
          "indexed": true,
          "internalType": "bytes32",
          "name": "id",
          "type": "bytes32"
        },
        {
          "indexed": false,
          "internalType": "bytes32",
          "name": "typeId",
          "type": "bytes32"
        },
        {
          "indexed": false,
          "internalType": "string",
          "name": "payload",
          "type": "string"
        }
      ],
      "name": "NewAttestation",
      "type": "event"
    },
    {
      "anonymous": false,
      "inputs": [
        {
          "indexed": true,
          "internalType": "address",
          "name": "sender",
          "type": "address"
        },
        {
          "indexed": true,
          "internalType": "bytes32",
          "name": "id",
          "type": "bytes32"
        },
        {
          "indexed": false,
          "internalType": "string",
          "name": "description",
          "type": "string"
        }
      ],
      "name": "NewAttestationType",
      "type": "event"
    },
    {
      "anonymous": false,
      "inputs": [
        {
          "indexed": true,
          "internalType": "address",
          "name": "from",
          "type": "address"
        },
        {
          "indexed": true,
          "internalType": "address",
          "name": "to",
          "type": "address"
        },
        {
          "indexed": true,
          "internalType": "bytes32",
          "name": "id",
          "type": "bytes32"
        },
        {
          "indexed": false,
          "internalType": "bytes32",
          "name": "typeId",
          "type": "bytes32"
        },
        {
          "indexed": false,
          "internalType": "string",
          "name": "desc",
          "type": "string"
        },
        {
          "indexed": false,
          "internalType": "uint256",
          "name": "amount",
          "type": "uint256"
        }
      ],
      "name": "NewRelationship",
      "type": "event"
    },
    {
      "anonymous": false,
      "inputs": [
        {
          "indexed": true,
          "internalType": "address",
          "name": "sender",
          "type": "address"
        },
        {
          "indexed": true,
          "internalType": "bytes32",
          "name": "id",
          "type": "bytes32"
        },
        {
          "indexed": false,
          "internalType": "string",
          "name": "description",
          "type": "string"
        }
      ],
      "name": "NewRelationshipType",
      "type": "event"
    },
    {
      "anonymous": false,
      "inputs": [
        {
          "indexed": true,
          "internalType": "bytes32",
          "name": "role",
          "type": "bytes32"
        },
        {
          "indexed": true,
          "internalType": "bytes32",
          "name": "previousAdminRole",
          "type": "bytes32"
        },
        {
          "indexed": true,
          "internalType": "bytes32",
          "name": "newAdminRole",
          "type": "bytes32"
        }
      ],
      "name": "RoleAdminChanged",
      "type": "event"
    },
    {
      "anonymous": false,
      "inputs": [
        {
          "indexed": true,
          "internalType": "bytes32",
          "name": "role",
          "type": "bytes32"
        },
        {
          "indexed": true,
          "internalType": "address",
          "name": "account",
          "type": "address"
        },
        {
          "indexed": true,
          "internalType": "address",
          "name": "sender",
          "type": "address"
        }
      ],
      "name": "RoleGranted",
      "type": "event"
    },
    {
      "anonymous": false,
      "inputs": [
        {
          "indexed": true,
          "internalType": "bytes32",
          "name": "role",
          "type": "bytes32"
        },
        {
          "indexed": true,
          "internalType": "address",
          "name": "account",
          "type": "address"
        },
        {
          "indexed": true,
          "internalType": "address",
          "name": "sender",
          "type": "address"
        }
      ],
      "name": "RoleRevoked",
      "type": "event"
    },
    {
      "anonymous": false,
      "inputs": [
        {
          "indexed": false,
          "internalType": "address",
          "name": "sender",
          "type": "address"
        },
        {
          "indexed": false,
          "internalType": "uint256",
          "name": "minimumAmount",
          "type": "uint256"
        }
      ],
      "name": "SetMinimum",
      "type": "event"
    },
    {
      "anonymous": false,
      "inputs": [
        {
          "indexed": true,
          "internalType": "address",
          "name": "signer",
          "type": "address"
        },
        {
          "indexed": true,
          "internalType": "address",
          "name": "user",
          "type": "address"
        },
        {
          "indexed": true,
          "internalType": "bytes32",
          "name": "id",
          "type": "bytes32"
        },
        {
          "indexed": false,
          "internalType": "bytes32",
          "name": "typeId",
          "type": "bytes32"
        },
        {
          "indexed": false,
          "internalType": "string",
          "name": "payload",
          "type": "string"
        }
      ],
      "name": "UpdateAttestation",
      "type": "event"
    },
    {
      "anonymous": false,
      "inputs": [
        {
          "indexed": true,
          "internalType": "address",
          "name": "sender",
          "type": "address"
        },
        {
          "indexed": true,
          "internalType": "bytes32",
          "name": "id",
          "type": "bytes32"
        },
        {
          "indexed": false,
          "internalType": "string",
          "name": "desc",
          "type": "string"
        }
      ],
      "name": "UpdateAttestionType",
      "type": "event"
    },
    {
      "anonymous": false,
      "inputs": [
        {
          "indexed": true,
          "internalType": "address",
          "name": "from",
          "type": "address"
        },
        {
          "indexed": true,
          "internalType": "bytes32",
          "name": "id",
          "type": "bytes32"
        },
        {
          "indexed": false,
          "internalType": "enum FactiivStore.Lifecycle",
          "name": "lifecycle",
          "type": "uint8"
        },
        {
          "indexed": false,
          "internalType": "string",
          "name": "metadata",
          "type": "string"
        }
      ],
      "name": "UpdateRelationship",
      "type": "event"
    },
    {
      "anonymous": false,
      "inputs": [
        {
          "indexed": true,
          "internalType": "address",
          "name": "sender",
          "type": "address"
        },
        {
          "indexed": true,
          "internalType": "bytes32",
          "name": "id",
          "type": "bytes32"
        },
        {
          "indexed": false,
          "internalType": "string",
          "name": "desc",
          "type": "string"
        }
      ],
      "name": "UpdateRelationshipType",
      "type": "event"
    },
    {
      "inputs": [],
      "name": "ARBITRATOR_ROLE",
      "outputs": [
        {
          "internalType": "bytes32",
          "name": "",
          "type": "bytes32"
        }
      ],
      "stateMutability": "view",
      "type": "function"
    },
    {
      "inputs": [],
      "name": "ATTESTOR_ROLE",
      "outputs": [
        {
          "internalType": "bytes32",
          "name": "",
          "type": "bytes32"
        }
      ],
      "stateMutability": "view",
      "type": "function"
    },
    {
      "inputs": [],
      "name": "DEFAULT_ADMIN_ROLE",
      "outputs": [
        {
          "internalType": "bytes32",
          "name": "",
          "type": "bytes32"
        }
      ],
      "stateMutability": "view",
      "type": "function"
    },
    {
      "inputs": [],
      "name": "GOVERNANCE_ROLE",
      "outputs": [
        {
          "internalType": "bytes32",
          "name": "",
          "type": "bytes32"
        }
      ],
      "stateMutability": "view",
      "type": "function"
    },
    {
      "inputs": [
        {
          "internalType": "bytes32",
          "name": "id",
          "type": "bytes32"
        }
      ],
      "name": "arbitrationDelete",
      "outputs": [],
      "stateMutability": "nonpayable",
      "type": "function"
    },
    {
      "inputs": [
        {
          "internalType": "bytes32",
          "name": "",
          "type": "bytes32"
        }
      ],
      "name": "attestation",
      "outputs": [
        {
          "internalType": "address",
          "name": "signer",
          "type": "address"
        },
        {
          "internalType": "address",
          "name": "user",
          "type": "address"
        },
        {
          "internalType": "bytes32",
          "name": "typeId",
          "type": "bytes32"
        },
        {
          "internalType": "string",
          "name": "payload",
          "type": "string"
        }
      ],
      "stateMutability": "view",
      "type": "function"
    },
    {
      "inputs": [
        {
          "internalType": "uint256",
          "name": "row",
          "type": "uint256"
        }
      ],
      "name": "attestationAtIndex",
      "outputs": [
        {
          "internalType": "bytes32",
          "name": "id",
          "type": "bytes32"
        }
      ],
      "stateMutability": "view",
      "type": "function"
    },
    {
      "inputs": [],
      "name": "attestationCount",
      "outputs": [
        {
          "internalType": "uint256",
          "name": "count",
          "type": "uint256"
        }
      ],
      "stateMutability": "view",
      "type": "function"
    },
    {
      "inputs": [
        {
          "internalType": "uint256",
          "name": "row",
          "type": "uint256"
        }
      ],
      "name": "attestationTypeAtIndex",
      "outputs": [
        {
          "internalType": "bytes32",
          "name": "id",
          "type": "bytes32"
        }
      ],
      "stateMutability": "view",
      "type": "function"
    },
    {
      "inputs": [],
      "name": "attestationTypeCount",
      "outputs": [
        {
          "internalType": "uint256",
          "name": "count",
          "type": "uint256"
        }
      ],
      "stateMutability": "view",
      "type": "function"
    },
    {
      "inputs": [
        {
          "internalType": "bytes32",
          "name": "",
          "type": "bytes32"
        }
      ],
      "name": "attestationTypeDesc",
      "outputs": [
        {
          "internalType": "string",
          "name": "",
          "type": "string"
        }
      ],
      "stateMutability": "view",
      "type": "function"
    },
    {
      "inputs": [
        {
          "internalType": "address",
          "name": "updater",
          "type": "address"
        },
        {
          "internalType": "bytes32",
          "name": "id",
          "type": "bytes32"
        }
      ],
      "name": "canUpdateRelationship",
      "outputs": [
        {
          "internalType": "bool",
          "name": "",
          "type": "bool"
        }
      ],
      "stateMutability": "view",
      "type": "function"
    },
    {
      "inputs": [
        {
          "internalType": "address",
          "name": "subject",
          "type": "address"
        },
        {
          "internalType": "bytes32",
          "name": "typeId",
          "type": "bytes32"
        },
        {
          "internalType": "string",
          "name": "payload",
          "type": "string"
        }
      ],
      "name": "createAttestation",
      "outputs": [
        {
          "internalType": "bytes32",
          "name": "id",
          "type": "bytes32"
        }
      ],
      "stateMutability": "nonpayable",
      "type": "function"
    },
    {
      "inputs": [
        {
          "internalType": "string",
          "name": "desc",
          "type": "string"
        }
      ],
      "name": "createAttestationType",
      "outputs": [
        {
          "internalType": "bytes32",
          "name": "id",
          "type": "bytes32"
        }
      ],
      "stateMutability": "nonpayable",
      "type": "function"
    },
    {
      "inputs": [
        {
          "internalType": "bytes32",
          "name": "typeId",
          "type": "bytes32"
        },
        {
          "internalType": "string",
          "name": "desc",
          "type": "string"
        },
        {
          "internalType": "uint256",
          "name": "amount",
          "type": "uint256"
        },
        {
          "internalType": "address",
          "name": "to",
          "type": "address"
        }
      ],
      "name": "createRelationship",
      "outputs": [
        {
          "internalType": "bytes32",
          "name": "id",
          "type": "bytes32"
        }
      ],
      "stateMutability": "nonpayable",
      "type": "function"
    },
    {
      "inputs": [
        {
          "internalType": "string",
          "name": "desc",
          "type": "string"
        }
      ],
      "name": "createRelationshipType",
      "outputs": [
        {
          "internalType": "bytes32",
          "name": "id",
          "type": "bytes32"
        }
      ],
      "stateMutability": "nonpayable",
      "type": "function"
    },
    {
      "inputs": [
        {
          "internalType": "bytes32",
          "name": "id",
          "type": "bytes32"
        }
      ],
      "name": "deleteRelationship",
      "outputs": [],
      "stateMutability": "nonpayable",
      "type": "function"
    },
    {
      "inputs": [],
      "name": "getCurrentAccount",
      "outputs": [
        {
          "internalType": "address",
          "name": "",
          "type": "address"
        }
      ],
      "stateMutability": "view",
      "type": "function"
    },
    {
      "inputs": [
        {
          "internalType": "bytes32",
          "name": "role",
          "type": "bytes32"
        }
      ],
      "name": "getRoleAdmin",
      "outputs": [
        {
          "internalType": "bytes32",
          "name": "",
          "type": "bytes32"
        }
      ],
      "stateMutability": "view",
      "type": "function"
    },
    {
      "inputs": [
        {
          "internalType": "bytes32",
          "name": "role",
          "type": "bytes32"
        },
        {
          "internalType": "address",
          "name": "account",
          "type": "address"
        }
      ],
      "name": "grantRole",
      "outputs": [],
      "stateMutability": "nonpayable",
      "type": "function"
    },
    {
      "inputs": [
        {
          "internalType": "bytes32",
          "name": "role",
          "type": "bytes32"
        },
        {
          "internalType": "address",
          "name": "account",
          "type": "address"
        }
      ],
      "name": "hasRole",
      "outputs": [
        {
          "internalType": "bool",
          "name": "",
          "type": "bool"
        }
      ],
      "stateMutability": "view",
      "type": "function"
    },
    {
      "inputs": [
        {
          "internalType": "address",
          "name": "forwarder",
          "type": "address"
        }
      ],
      "name": "isTrustedForwarder",
      "outputs": [
        {
          "internalType": "bool",
          "name": "",
          "type": "bool"
        }
      ],
      "stateMutability": "view",
      "type": "function"
    },
    {
      "inputs": [],
      "name": "minimumAmount",
      "outputs": [
        {
          "internalType": "uint256",
          "name": "",
          "type": "uint256"
        }
      ],
      "stateMutability": "view",
      "type": "function"
    },
    {
      "inputs": [],
      "name": "nonce",
      "outputs": [
        {
          "internalType": "uint256",
          "name": "",
          "type": "uint256"
        }
      ],
      "stateMutability": "view",
      "type": "function"
    },
    {
      "inputs": [
        {
          "internalType": "bytes32",
          "name": "",
          "type": "bytes32"
        }
      ],
      "name": "relationship",
      "outputs": [
        {
          "internalType": "bytes32",
          "name": "typeId",
          "type": "bytes32"
        },
        {
          "internalType": "string",
          "name": "description",
          "type": "string"
        },
        {
          "internalType": "uint256",
          "name": "amount",
          "type": "uint256"
        },
        {
          "internalType": "address",
          "name": "from",
          "type": "address"
        },
        {
          "internalType": "address",
          "name": "to",
          "type": "address"
        },
        {
          "internalType": "address",
          "name": "arbitrator",
          "type": "address"
        }
      ],
      "stateMutability": "view",
      "type": "function"
    },
    {
      "inputs": [
        {
          "internalType": "uint256",
          "name": "row",
          "type": "uint256"
        }
      ],
      "name": "relationshipAtIndex",
      "outputs": [
        {
          "internalType": "bytes32",
          "name": "id",
          "type": "bytes32"
        }
      ],
      "stateMutability": "view",
      "type": "function"
    },
    {
      "inputs": [],
      "name": "relationshipCount",
      "outputs": [
        {
          "internalType": "uint256",
          "name": "count",
          "type": "uint256"
        }
      ],
      "stateMutability": "view",
      "type": "function"
    },
    {
      "inputs": [
        {
          "internalType": "bytes32",
          "name": "id",
          "type": "bytes32"
        }
      ],
      "name": "relationshipStage",
      "outputs": [
        {
          "internalType": "enum FactiivStore.Lifecycle",
          "name": "lifecycle",
          "type": "uint8"
        }
      ],
      "stateMutability": "view",
      "type": "function"
    },
    {
      "inputs": [],
      "name": "relationshipTypeCount",
      "outputs": [
        {
          "internalType": "uint256",
          "name": "count",
          "type": "uint256"
        }
      ],
      "stateMutability": "view",
      "type": "function"
    },
    {
      "inputs": [
        {
          "internalType": "bytes32",
          "name": "",
          "type": "bytes32"
        }
      ],
      "name": "relationshipTypeDesc",
      "outputs": [
        {
          "internalType": "string",
          "name": "",
          "type": "string"
        }
      ],
      "stateMutability": "view",
      "type": "function"
    },
    {
      "inputs": [
        {
          "internalType": "uint256",
          "name": "row",
          "type": "uint256"
        }
      ],
      "name": "relationshipTypeIdAtIndex",
      "outputs": [
        {
          "internalType": "bytes32",
          "name": "id",
          "type": "bytes32"
        }
      ],
      "stateMutability": "view",
      "type": "function"
    },
    {
      "inputs": [
        {
          "internalType": "bytes32",
          "name": "role",
          "type": "bytes32"
        },
        {
          "internalType": "address",
          "name": "account",
          "type": "address"
        }
      ],
      "name": "renounceRole",
      "outputs": [],
      "stateMutability": "nonpayable",
      "type": "function"
    },
    {
      "inputs": [
        {
          "internalType": "bytes32",
          "name": "role",
          "type": "bytes32"
        },
        {
          "internalType": "address",
          "name": "account",
          "type": "address"
        }
      ],
      "name": "revokeRole",
      "outputs": [],
      "stateMutability": "nonpayable",
      "type": "function"
    },
    {
      "inputs": [
        {
          "internalType": "uint256",
          "name": "minimum",
          "type": "uint256"
        }
      ],
      "name": "setMinimumAmount",
      "outputs": [],
      "stateMutability": "nonpayable",
      "type": "function"
    },
    {
      "inputs": [
        {
          "internalType": "bytes4",
          "name": "interfaceId",
          "type": "bytes4"
        }
      ],
      "name": "supportsInterface",
      "outputs": [
        {
          "internalType": "bool",
          "name": "",
          "type": "bool"
        }
      ],
      "stateMutability": "view",
      "type": "function"
    },
    {
      "inputs": [],
      "name": "trustedForwarder",
      "outputs": [
        {
          "internalType": "address",
          "name": "",
          "type": "address"
        }
      ],
      "stateMutability": "view",
      "type": "function"
    },
    {
      "inputs": [
        {
          "internalType": "address",
          "name": "subject",
          "type": "address"
        },
        {
          "internalType": "bytes32",
          "name": "id",
          "type": "bytes32"
        },
        {
          "internalType": "string",
          "name": "payload",
          "type": "string"
        }
      ],
      "name": "updateAttestation",
      "outputs": [],
      "stateMutability": "nonpayable",
      "type": "function"
    },
    {
      "inputs": [
        {
          "internalType": "bytes32",
          "name": "id",
          "type": "bytes32"
        },
        {
          "internalType": "string",
          "name": "desc",
          "type": "string"
        }
      ],
      "name": "updateAttestationType",
      "outputs": [],
      "stateMutability": "nonpayable",
      "type": "function"
    },
    {
      "inputs": [
        {
          "internalType": "bytes32",
          "name": "id",
          "type": "bytes32"
        },
        {
          "internalType": "enum FactiivStore.Lifecycle",
          "name": "lifecycle",
          "type": "uint8"
        },
        {
          "internalType": "string",
          "name": "metadata",
          "type": "string"
        }
      ],
      "name": "updateRelationship",
      "outputs": [],
      "stateMutability": "nonpayable",
      "type": "function"
    },
    {
      "inputs": [
        {
          "internalType": "bytes32",
          "name": "id",
          "type": "bytes32"
        },
        {
          "internalType": "string",
          "name": "desc",
          "type": "string"
        }
      ],
      "name": "updateRelationshipType",
      "outputs": [],
      "stateMutability": "nonpayable",
      "type": "function"
    },
    {
      "inputs": [
        {
          "internalType": "address",
          "name": "userAddr",
          "type": "address"
        },
        {
          "internalType": "uint256",
          "name": "row",
          "type": "uint256"
        }
      ],
      "name": "userAttestationAtIndex",
      "outputs": [
        {
          "internalType": "bytes32",
          "name": "id",
          "type": "bytes32"
        }
      ],
      "stateMutability": "view",
      "type": "function"
    },
    {
      "inputs": [
        {
          "internalType": "address",
          "name": "userAddr",
          "type": "address"
        }
      ],
      "name": "userMeta",
      "outputs": [
        {
          "internalType": "uint256",
          "name": "linksOut",
          "type": "uint256"
        },
        {
          "internalType": "uint256",
          "name": "linksIn",
          "type": "uint256"
        },
        {
          "internalType": "uint256",
          "name": "attestations",
          "type": "uint256"
        }
      ],
      "stateMutability": "view",
      "type": "function"
    },
    {
      "inputs": [
        {
          "internalType": "address",
          "name": "userAddr",
          "type": "address"
        },
        {
          "internalType": "uint256",
          "name": "row",
          "type": "uint256"
        }
      ],
      "name": "userReceiveRelationshipAtIndex",
      "outputs": [
        {
          "internalType": "bytes32",
          "name": "id",
          "type": "bytes32"
        }
      ],
      "stateMutability": "view",
      "type": "function"
    },
    {
      "inputs": [
        {
          "internalType": "address",
          "name": "userAddr",
          "type": "address"
        },
        {
          "internalType": "uint256",
          "name": "row",
          "type": "uint256"
        }
      ],
      "name": "userSendRelationshipAtIndex",
      "outputs": [
        {
          "internalType": "bytes32",
          "name": "id",
          "type": "bytes32"
        }
      ],
      "stateMutability": "view",
      "type": "function"
    },
    {
      "inputs": [],
      "name": "versionRecipient",
      "outputs": [
        {
          "internalType": "string",
          "name": "",
          "type": "string"
        }
      ],
      "stateMutability": "view",
      "type": "function"
    }
  ],
  "bytecode": "0x60806040526040518060400160405280600581526020017f322e322e30000000000000000000000000000000000000000000000000000000815250601390805190602001906200005192919062000290565b503480156200005f57600080fd5b50604051620048d7380380620048d7833981810160405281019062000085919062000357565b6200009a6000801b836200011560201b60201c565b620000cc7f71840dc4906352362b0cdaf79870196c8e42acafade72d5d5a6d59291253ceb1836200011560201b60201c565b80601160006101000a81548173ffffffffffffffffffffffffffffffffffffffff021916908373ffffffffffffffffffffffffffffffffffffffff16021790555050506200044b565b6200012782826200012b60201b60201c565b5050565b6200013d82826200021d60201b60201c565b620002195760016012600084815260200190815260200160002060000160008373ffffffffffffffffffffffffffffffffffffffff1673ffffffffffffffffffffffffffffffffffffffff16815260200190815260200160002060006101000a81548160ff021916908315150217905550620001be6200028860201b60201c565b73ffffffffffffffffffffffffffffffffffffffff168173ffffffffffffffffffffffffffffffffffffffff16837f2f8788117e7eff1d82e926ec794901d17c78024a50270940304540a733656f0d60405160405180910390a45b5050565b60006012600084815260200190815260200160002060000160008373ffffffffffffffffffffffffffffffffffffffff1673ffffffffffffffffffffffffffffffffffffffff16815260200190815260200160002060009054906101000a900460ff16905092915050565b600033905090565b8280546200029e90620003cc565b90600052602060002090601f016020900481019282620002c257600085556200030e565b82601f10620002dd57805160ff19168380011785556200030e565b828001600101855582156200030e579182015b828111156200030d578251825591602001919060010190620002f0565b5b5090506200031d919062000321565b5090565b5b808211156200033c57600081600090555060010162000322565b5090565b600081519050620003518162000431565b92915050565b600080604083850312156200036b57600080fd5b60006200037b8582860162000340565b92505060206200038e8582860162000340565b9150509250929050565b6000620003a582620003ac565b9050919050565b600073ffffffffffffffffffffffffffffffffffffffff82169050919050565b60006002820490506001821680620003e557607f821691505b60208210811415620003fc57620003fb62000402565b5b50919050565b7f4e487b7100000000000000000000000000000000000000000000000000000000600052602260045260246000fd5b6200043c8162000398565b81146200044857600080fd5b50565b61447c806200045b6000396000f3fe608060405234801561001057600080fd5b506004361061027f5760003560e01c8063849b7a591161015c578063a96cfb6b116100ce578063e915970811610087578063e915970814610861578063eda1d21214610896578063ee6bb518146108b2578063eeb4a9c8146108e2578063f36c8f5c146108fe578063fa0f722c1461091c5761027f565b8063a96cfb6b1461079f578063affed0e0146107bb578063bb0c8298146107d9578063c1dd76ea146107f7578063d547741f14610827578063dfbc55a3146108435761027f565b806398d41fbd1161012057806398d41fbd146106c95780639cea0787146106f9578063a15b932114610717578063a217fddf14610735578063a29dc1a014610753578063a54e3a73146107835761027f565b8063849b7a59146105eb57806385b45f551461061b578063865e658e1461064d57806388f2e95f1461067d57806391d14854146106995761027f565b806340f329ca116101f557806360929cff116101b957806360929cff1461050157806362723644146105315780636287ffd51461054f5780637da0a8771461057f5780637e8bbbac1461059d578063805a0db8146105bb5761027f565b806340f329ca14610435578063486ff0cd146104535780634c5551831461047157806352c0fa26146104a1578063572b6c05146104d15761027f565b806324fd94931161024757806324fd94931461036357806325da9b00146103935780632cb62004146103b15780632f2ff15d146103cd57806330e3d0a0146103e957806336568abe146104195761027f565b806301ffc9a714610284578063190c4269146102b45780631a7fca86146102d05780631af41fc214610303578063248a9ca314610333575b600080fd5b61029e6004803603810190610299919061342e565b61094c565b6040516102ab919061383e565b60405180910390f35b6102ce60048036038101906102c9919061335f565b6109c6565b005b6102ea60048036038101906102e59190613293565b610a0f565b6040516102fa94939291906137c9565b60405180910390f35b61031d600480360381019061031891906131b4565b610b07565b60405161032a919061383e565b60405180910390f35b61034d60048036038101906103489190613293565b610c45565b60405161035a9190613859565b60405180910390f35b61037d60048036038101906103789190613293565b610c65565b60405161038a9190613995565b60405180910390f35b61039b610d05565b6040516103a891906137ae565b60405180910390f35b6103cb60048036038101906103c691906131f0565b610d14565b005b6103e760048036038101906103e291906132bc565b610d5f565b005b61040360048036038101906103fe9190613457565b610d88565b6040516104109190613859565b60405180910390f35b610433600480360381019061042e91906132bc565b610dd5565b005b61043d610e58565b60405161044a9190613af7565b60405180910390f35b61045b610e69565b6040516104689190613995565b60405180910390f35b61048b60048036038101906104869190613257565b610ef7565b6040516104989190613859565b60405180910390f35b6104bb60048036038101906104b69190613498565b610f5a565b6040516104c89190613859565b60405180910390f35b6104eb60048036038101906104e6919061318b565b610f77565b6040516104f8919061383e565b60405180910390f35b61051b60048036038101906105169190613498565b610fd1565b6040516105289190613859565b60405180910390f35b610539610fee565b6040516105469190613859565b60405180910390f35b61056960048036038101906105649190613293565b611012565b604051610576919061394a565b60405180910390f35b6105876110ac565b60405161059491906137ae565b60405180910390f35b6105a56110d2565b6040516105b29190613af7565b60405180910390f35b6105d560048036038101906105d091906133b3565b6110e3565b6040516105e29190613859565b60405180910390f35b61060560048036038101906106009190613498565b611103565b6040516106129190613859565b60405180910390f35b6106356004803603810190610630919061318b565b611120565b60405161064493929190613b12565b60405180910390f35b61066760048036038101906106629190613257565b611199565b6040516106749190613859565b60405180910390f35b610697600480360381019061069291906132f8565b6111fc565b005b6106b360048036038101906106ae91906132bc565b611264565b6040516106c0919061383e565b60405180910390f35b6106e360048036038101906106de91906131f0565b6112cf565b6040516106f09190613859565b60405180910390f35b610701611320565b60405161070e9190613859565b60405180910390f35b61071f611344565b60405161072c9190613af7565b60405180910390f35b61073d611355565b60405161074a9190613859565b60405180910390f35b61076d60048036038101906107689190613457565b61135c565b60405161077a9190613859565b60405180910390f35b61079d6004803603810190610798919061335f565b6113a9565b005b6107b960048036038101906107b49190613293565b6113f2565b005b6107c3611406565b6040516107d09190613af7565b60405180910390f35b6107e161140c565b6040516107ee9190613af7565b60405180910390f35b610811600480360381019061080c9190613498565b611412565b60405161081e9190613859565b60405180910390f35b610841600480360381019061083c91906132bc565b61142f565b005b61084b611458565b6040516108589190613af7565b60405180910390f35b61087b60048036038101906108769190613293565b611469565b60405161088d969594939291906138e2565b60405180910390f35b6108b060048036038101906108ab9190613293565b61158d565b005b6108cc60048036038101906108c79190613257565b6115a1565b6040516108d99190613859565b60405180910390f35b6108fc60048036038101906108f79190613498565b611604565b005b610906611681565b6040516109139190613859565b60405180910390f35b61093660048036038101906109319190613293565b6116a5565b6040516109439190613995565b60405180910390f35b60007f7965db0b000000000000000000000000000000000000000000000000000000007bffffffffffffffffffffffffffffffffffffffffffffffffffffffff1916827bffffffffffffffffffffffffffffffffffffffffffffffffffffffff191614806109bf57506109be82611745565b5b9050919050565b7f71840dc4906352362b0cdaf79870196c8e42acafade72d5d5a6d59291253ceb16109f8816109f36117af565b6117b7565b610a0a610a03611854565b8484611890565b505050565b600a6020528060005260406000206000915090508060000160009054906101000a900473ffffffffffffffffffffffffffffffffffffffff16908060010160009054906101000a900473ffffffffffffffffffffffffffffffffffffffff1690806002015490806003018054610a8490613db9565b80601f0160208091040260200160405190810160405280929190818152602001828054610ab090613db9565b8015610afd5780601f10610ad257610100808354040283529160200191610afd565b820191906000526020600020905b815481529060010190602001808311610ae057829003601f168201915b5050505050905084565b6000806007600084815260200190815260200160002090508373ffffffffffffffffffffffffffffffffffffffff168160030160009054906101000a900473ffffffffffffffffffffffffffffffffffffffff1673ffffffffffffffffffffffffffffffffffffffff161480610bcc57508373ffffffffffffffffffffffffffffffffffffffff168160040160009054906101000a900473ffffffffffffffffffffffffffffffffffffffff1673ffffffffffffffffffffffffffffffffffffffff16145b80610c045750610c037f12fc611a35f9099177ee7d774f3d6415455a6ea95442dc1bf1c538e01f5d61db610bfe611854565b611264565b5b80610c3c5750610c3b7f71840dc4906352362b0cdaf79870196c8e42acafade72d5d5a6d59291253ceb1610c36611854565b611264565b5b91505092915050565b600060126000838152602001908152602001600020600101549050919050565b60106020528060005260406000206000915090508054610c8490613db9565b80601f0160208091040260200160405190810160405280929190818152602001828054610cb090613db9565b8015610cfd5780601f10610cd257610100808354040283529160200191610cfd565b820191906000526020600020905b815481529060010190602001808311610ce057829003601f168201915b505050505081565b6000610d0f611854565b905090565b7fca77cd8f9856ef5fcd36f6b15bf469fe216c2f9114f60dd031f0a2b97b67aaa9610d4681610d416117af565b6117b7565b610d59610d51611854565b85858561195f565b50505050565b610d6882610c45565b610d7981610d746117af565b6117b7565b610d838383611a55565b505050565b60007f71840dc4906352362b0cdaf79870196c8e42acafade72d5d5a6d59291253ceb1610dbc81610db76117af565b6117b7565b610dcd610dc7611854565b84611b36565b915050919050565b610ddd6117af565b73ffffffffffffffffffffffffffffffffffffffff168173ffffffffffffffffffffffffffffffffffffffff1614610e4a576040517f08c379a0000000000000000000000000000000000000000000000000000000008152600401610e4190613ad7565b60405180910390fd5b610e548282611bed565b5050565b6000610e646005611ccf565b905090565b60138054610e7690613db9565b80601f0160208091040260200160405190810160405280929190818152602001828054610ea290613db9565b8015610eef5780601f10610ec457610100808354040283529160200191610eef565b820191906000526020600020905b815481529060010190602001808311610ed257829003601f168201915b505050505081565b600080600460008573ffffffffffffffffffffffffffffffffffffffff1673ffffffffffffffffffffffffffffffffffffffff1681526020019081526020016000209050610f518382600201611ce090919063ffffffff16565b91505092915050565b6000610f70826008611ce090919063ffffffff16565b9050919050565b6000601160009054906101000a900473ffffffffffffffffffffffffffffffffffffffff1673ffffffffffffffffffffffffffffffffffffffff168273ffffffffffffffffffffffffffffffffffffffff16149050919050565b6000610fe7826005611ce090919063ffffffff16565b9050919050565b7fca77cd8f9856ef5fcd36f6b15bf469fe216c2f9114f60dd031f0a2b97b67aaa981565b6000806007600084815260200190815260200160002090506000816005018054905090506000826005016001836110499190613c76565b81548110611080577f4e487b7100000000000000000000000000000000000000000000000000000000600052603260045260246000fd5b906000526020600020906002020190508060000160009054906101000a900460ff169350505050919050565b601160009054906101000a900473ffffffffffffffffffffffffffffffffffffffff1681565b60006110de600b611ccf565b905090565b60006110f96110f0611854565b86868686611d31565b9050949350505050565b600061111982600b611ce090919063ffffffff16565b9050919050565b600080600080600460008673ffffffffffffffffffffffffffffffffffffffff1673ffffffffffffffffffffffffffffffffffffffff168152602001908152602001600020905061117381600001611ccf565b61117f82600201611ccf565b61118b83600401611ccf565b935093509350509193909250565b600080600460008573ffffffffffffffffffffffffffffffffffffffff1673ffffffffffffffffffffffffffffffffffffffff16815260200190815260200160002090506111f38382600401611ce090919063ffffffff16565b91505092915050565b61120d611207611854565b84610b07565b61124c576040517f08c379a000000000000000000000000000000000000000000000000000000000815260040161124390613a77565b60405180910390fd5b61125f611257611854565b848484612181565b505050565b60006012600084815260200190815260200160002060000160008373ffffffffffffffffffffffffffffffffffffffff1673ffffffffffffffffffffffffffffffffffffffff16815260200190815260200160002060009054906101000a900460ff16905092915050565b60007fca77cd8f9856ef5fcd36f6b15bf469fe216c2f9114f60dd031f0a2b97b67aaa9611303816112fe6117af565b6117b7565b61131661130e611854565b868686612338565b9150509392505050565b7f12fc611a35f9099177ee7d774f3d6415455a6ea95442dc1bf1c538e01f5d61db81565b60006113506008611ccf565b905090565b6000801b81565b60007f71840dc4906352362b0cdaf79870196c8e42acafade72d5d5a6d59291253ceb16113908161138b6117af565b6117b7565b6113a161139b611854565b84612516565b915050919050565b7f71840dc4906352362b0cdaf79870196c8e42acafade72d5d5a6d59291253ceb16113db816113d66117af565b6117b7565b6113ed6113e6611854565b84846125cd565b505050565b6114036113fd611854565b8261269c565b50565b60005481565b60015481565b600061142882600e611ce090919063ffffffff16565b9050919050565b61143882610c45565b611449816114446117af565b6117b7565b6114538383611bed565b505050565b6000611464600e611ccf565b905090565b600760205280600052604060002060009150905080600001549080600101805461149290613db9565b80601f01602080910402602001604051908101604052809291908181526020018280546114be90613db9565b801561150b5780601f106114e05761010080835404028352916020019161150b565b820191906000526020600020905b8154815290600101906020018083116114ee57829003601f168201915b5050505050908060020154908060030160009054906101000a900473ffffffffffffffffffffffffffffffffffffffff16908060040160009054906101000a900473ffffffffffffffffffffffffffffffffffffffff16908060060160009054906101000a900473ffffffffffffffffffffffffffffffffffffffff16905086565b61159e611598611854565b8261269c565b50565b600080600460008573ffffffffffffffffffffffffffffffffffffffff1673ffffffffffffffffffffffffffffffffffffffff16815260200190815260200160002090506115fb8382600001611ce090919063ffffffff16565b91505092915050565b7f71840dc4906352362b0cdaf79870196c8e42acafade72d5d5a6d59291253ceb1611636816116316117af565b6117b7565b816001819055507f80e9e01c87bcbce1c332b54fae7aeca49677c397c9a61984afd885163d71f4db6116666117af565b83604051611675929190613815565b60405180910390a15050565b7f71840dc4906352362b0cdaf79870196c8e42acafade72d5d5a6d59291253ceb181565b600d60205280600052604060002060009150905080546116c490613db9565b80601f01602080910402602001604051908101604052809291908181526020018280546116f090613db9565b801561173d5780601f106117125761010080835404028352916020019161173d565b820191906000526020600020905b81548152906001019060200180831161172057829003601f168201915b505050505081565b60007f01ffc9a7000000000000000000000000000000000000000000000000000000007bffffffffffffffffffffffffffffffffffffffffffffffffffffffff1916827bffffffffffffffffffffffffffffffffffffffffffffffffffffffff1916149050919050565b600033905090565b6117c18282611264565b611850576117e68173ffffffffffffffffffffffffffffffffffffffff16601461296c565b6117f48360001c602061296c565b604051602001611805929190613774565b6040516020818303038152906040526040517f08c379a00000000000000000000000000000000000000000000000000000000081526004016118479190613995565b60405180910390fd5b5050565b60006014600036905010158015611870575061186f33610f77565b5b1561188457601436033560601c905061188c565b33905061188d565b5b90565b6118a482600b612c6690919063ffffffff16565b6118e3576040517f08c379a00000000000000000000000000000000000000000000000000000000081526004016118da906139d7565b60405180910390fd5b80600d6000848152602001908152602001600020908051906020019061190a929190612f78565b50818373ffffffffffffffffffffffffffffffffffffffff167f084121be7eb04075aa4da9fb0baa0025c8b79cae839ec2153e1e054409c4eb7c836040516119529190613995565b60405180910390a3505050565b611973826008612c6690919063ffffffff16565b6119b2576040517f08c379a00000000000000000000000000000000000000000000000000000000081526004016119a990613a37565b60405180910390fd5b6000600a60008481526020019081526020016000209050818160030190805190602001906119e1929190612f78565b50828473ffffffffffffffffffffffffffffffffffffffff168673ffffffffffffffffffffffffffffffffffffffff167f862a60bef5105d3377cafc3c1dd1231ef47d85feb9352f25786c11e03af13c02846002015486604051611a46929190613874565b60405180910390a45050505050565b611a5f8282611264565b611b325760016012600084815260200190815260200160002060000160008373ffffffffffffffffffffffffffffffffffffffff1673ffffffffffffffffffffffffffffffffffffffff16815260200190815260200160002060006101000a81548160ff021916908315150217905550611ad76117af565b73ffffffffffffffffffffffffffffffffffffffff168173ffffffffffffffffffffffffffffffffffffffff16837f2f8788117e7eff1d82e926ec794901d17c78024a50270940304540a733656f0d60405160405180910390a45b5050565b6000611b40612ce7565b9050611b70816040518060600160405280602f815260200161430a602f9139600e612d309092919063ffffffff16565b81601060008381526020019081526020016000209080519060200190611b97929190612f78565b50808373ffffffffffffffffffffffffffffffffffffffff167f552f72c71153e22a5f5ca0ca4c94c92ab22effee9a714e7d1157f94e1876656084604051611bdf9190613995565b60405180910390a392915050565b611bf78282611264565b15611ccb5760006012600084815260200190815260200160002060000160008373ffffffffffffffffffffffffffffffffffffffff1673ffffffffffffffffffffffffffffffffffffffff16815260200190815260200160002060006101000a81548160ff021916908315150217905550611c706117af565b73ffffffffffffffffffffffffffffffffffffffff168173ffffffffffffffffffffffffffffffffffffffff16837ff6391f5c32d9c69d2a47ea670b442974b53935d1edc7fd64eb21e047a839171b60405160405180910390a45b5050565b600081600101805490509050919050565b6000826001018281548110611d1e577f4e487b7100000000000000000000000000000000000000000000000000000000600052603260045260246000fd5b9060005260206000200154905092915050565b6000611d4785600b612c6690919063ffffffff16565b611d86576040517f08c379a0000000000000000000000000000000000000000000000000000000008152600401611d7d90613a57565b60405180910390fd5b6001548311611dca576040517f08c379a0000000000000000000000000000000000000000000000000000000008152600401611dc190613ab7565b60405180910390fd5b8173ffffffffffffffffffffffffffffffffffffffff163373ffffffffffffffffffffffffffffffffffffffff161415611e39576040517f08c379a0000000000000000000000000000000000000000000000000000000008152600401611e30906139f7565b60405180910390fd5b611e41612ce7565b90506000604051806040016040528060006004811115611e8a577f4e487b7100000000000000000000000000000000000000000000000000000000600052602160045260246000fd5b815260200160405180602001604052806000815250815250905060006007600084815260200190815260200160002090506000600460008a73ffffffffffffffffffffffffffffffffffffffff1673ffffffffffffffffffffffffffffffffffffffff16815260200190815260200160002090506000600460008773ffffffffffffffffffffffffffffffffffffffff1673ffffffffffffffffffffffffffffffffffffffff1681526020019081526020016000209050888360000181905550868360020181905550898360030160006101000a81548173ffffffffffffffffffffffffffffffffffffffff021916908373ffffffffffffffffffffffffffffffffffffffff160217905550858360040160006101000a81548173ffffffffffffffffffffffffffffffffffffffff021916908373ffffffffffffffffffffffffffffffffffffffff1602179055508260050184908060018154018082558091505060019003906000526020600020906002020160009091909190915060008201518160000160006101000a81548160ff02191690836004811115612058577f4e487b7100000000000000000000000000000000000000000000000000000000600052602160045260246000fd5b02179055506020820151816001019080519060200190612079929190612f78565b5050506120aa856040518060600160405280602b815260200161441c602b91396005612d309092919063ffffffff16565b6120da856040518060600160405280602a8152602001614339602a913983600201612d309092919063ffffffff16565b61210a856040518060600160405280602c8152602001614363602c913984600001612d309092919063ffffffff16565b848673ffffffffffffffffffffffffffffffffffffffff168b73ffffffffffffffffffffffffffffffffffffffff167fbcc29e0ad7824522560710a30f8ddd060d3ad441dd28a900808bb3b4c3b2e8888c8c8c60405161216c939291906138a4565b60405180910390a45050505095945050505050565b60006007600085815260200190815260200160002090506121ac846005612c6690919063ffffffff16565b6121eb576040517f08c379a00000000000000000000000000000000000000000000000000000000081526004016121e290613a97565b60405180910390fd5b60006040518060400160405280856004811115612231577f4e487b7100000000000000000000000000000000000000000000000000000000600052602160045260246000fd5b81526020018481525090508160050181908060018154018082558091505060019003906000526020600020906002020160009091909190915060008201518160000160006101000a81548160ff021916908360048111156122bb577f4e487b7100000000000000000000000000000000000000000000000000000000600052602160045260246000fd5b021790555060208201518160010190805190602001906122dc929190612f78565b505050848673ffffffffffffffffffffffffffffffffffffffff167f65a96abf7a8464886adb3c10ad9c2eac2c28cda0e5a5d06a4e43e82ba1d904b58686604051612328929190613965565b60405180910390a3505050505050565b6000612342612ce7565b90506000600a600083815260200190815260200160002090506000600460008773ffffffffffffffffffffffffffffffffffffffff1673ffffffffffffffffffffffffffffffffffffffff1681526020019081526020016000209050868260000160006101000a81548173ffffffffffffffffffffffffffffffffffffffff021916908373ffffffffffffffffffffffffffffffffffffffff160217905550858260010160006101000a81548173ffffffffffffffffffffffffffffffffffffffff021916908373ffffffffffffffffffffffffffffffffffffffff16021790555084826002018190555083826003019080519060200190612445929190612f78565b506124768360405180606001604052806032815260200161438f6032913983600401612d309092919063ffffffff16565b6124a4836040518060600160405280602b81526020016143c1602b91396008612d309092919063ffffffff16565b828673ffffffffffffffffffffffffffffffffffffffff168873ffffffffffffffffffffffffffffffffffffffff167f0f1d05e62d3c2e358bd9b4b996cc1c77348f8bdc6a0fb2a44acdda8aa10a7c728888604051612504929190613874565b60405180910390a45050949350505050565b6000612520612ce7565b9050612550816040518060600160405280603081526020016143ec60309139600b612d309092919063ffffffff16565b81600d60008381526020019081526020016000209080519060200190612577929190612f78565b50808373ffffffffffffffffffffffffffffffffffffffff167f302043e9714b4fffdb7c6b5b0bd0a7ce1ed44e23090c5b141d07a0b7db226e63846040516125bf9190613995565b60405180910390a392915050565b6125e182600e612c6690919063ffffffff16565b612620576040517f08c379a000000000000000000000000000000000000000000000000000000000815260040161261790613a17565b60405180910390fd5b80601060008481526020019081526020016000209080519060200190612647929190612f78565b50818373ffffffffffffffffffffffffffffffffffffffff167f4dbbe29cd02f27130f9de96fa91ea03748f6c81a9b30beb32be958364bf3d39a8360405161268f9190613995565b60405180910390a3505050565b60006007600083815260200190815260200160002090506000600460008360030160009054906101000a900473ffffffffffffffffffffffffffffffffffffffff1673ffffffffffffffffffffffffffffffffffffffff1673ffffffffffffffffffffffffffffffffffffffff16815260200190815260200160002090506000600460008460040160009054906101000a900473ffffffffffffffffffffffffffffffffffffffff1673ffffffffffffffffffffffffffffffffffffffff1673ffffffffffffffffffffffffffffffffffffffff1681526020019081526020016000209050600760008581526020019081526020016000206000808201600090556001820160006127ad9190612ffe565b60028201600090556003820160006101000a81549073ffffffffffffffffffffffffffffffffffffffff02191690556004820160006101000a81549073ffffffffffffffffffffffffffffffffffffffff0219169055600582016000612813919061303e565b6006820160006101000a81549073ffffffffffffffffffffffffffffffffffffffff02191690555050612887846040518060400160405280601781526020017f756e6b6e6f776e2072656c6174696f6e736869702069640000000000000000008152506005612dcf9092919063ffffffff16565b6128d4846040518060400160405280601781526020017f756e6b6e6f776e2072656c6174696f6e7368697020696400000000000000000081525084600001612dcf9092919063ffffffff16565b612921846040518060400160405280601781526020017f756e6b6e6f776e2072656c6174696f6e7368697020696400000000000000000081525083600201612dcf9092919063ffffffff16565b838573ffffffffffffffffffffffffffffffffffffffff167f28921f27194c5ae8f1c2c4010aad2d87af120b1b0e8e743eb7a3d0810b4b214160405160405180910390a35050505050565b60606000600283600261297f9190613c1c565b6129899190613bc6565b67ffffffffffffffff8111156129c8577f4e487b7100000000000000000000000000000000000000000000000000000000600052604160045260246000fd5b6040519080825280601f01601f1916602001820160405280156129fa5781602001600182028036833780820191505090505b5090507f300000000000000000000000000000000000000000000000000000000000000081600081518110612a58577f4e487b7100000000000000000000000000000000000000000000000000000000600052603260045260246000fd5b60200101907effffffffffffffffffffffffffffffffffffffffffffffffffffffffffffff1916908160001a9053507f780000000000000000000000000000000000000000000000000000000000000081600181518110612ae2577f4e487b7100000000000000000000000000000000000000000000000000000000600052603260045260246000fd5b60200101907effffffffffffffffffffffffffffffffffffffffffffffffffffffffffffff1916908160001a90535060006001846002612b229190613c1c565b612b2c9190613bc6565b90505b6001811115612c18577f3031323334353637383961626364656600000000000000000000000000000000600f861660108110612b94577f4e487b7100000000000000000000000000000000000000000000000000000000600052603260045260246000fd5b1a60f81b828281518110612bd1577f4e487b7100000000000000000000000000000000000000000000000000000000600052603260045260246000fd5b60200101907effffffffffffffffffffffffffffffffffffffffffffffffffffffffffffff1916908160001a905350600485901c945080612c1190613d8f565b9050612b2f565b5060008414612c5c576040517f08c379a0000000000000000000000000000000000000000000000000000000008152600401612c53906139b7565b60405180910390fd5b8091505092915050565b60008083600101805490501415612c805760009050612ce1565b81836001018460000160008581526020019081526020016000205481548110612cd2577f4e487b7100000000000000000000000000000000000000000000000000000000600052603260045260246000fd5b90600052602060002001541490505b92915050565b6000806000815480929190612cfb90613e1c565b919050555030600054604051602001612d15929190613748565b60405160208183030381529060405280519060200120905090565b612d3a8383612c66565b158190612d7d576040517f08c379a0000000000000000000000000000000000000000000000000000000008152600401612d749190613995565b60405180910390fd5b5082600101805490508360000160008481526020019081526020016000208190555082600101829080600181540180825580915050600190039060005260206000200160009091909190915055505050565b612dd98383612c66565b8190612e1b576040517f08c379a0000000000000000000000000000000000000000000000000000000008152600401612e129190613995565b60405180910390fd5b5060006001612e2985611ccf565b612e339190613c76565b90506000846000016000858152602001908152602001600020549050818114612f08576000856001018381548110612e94577f4e487b7100000000000000000000000000000000000000000000000000000000600052603260045260246000fd5b90600052602060002001549050818660000160008381526020019081526020016000208190555080866001018381548110612ef8577f4e487b7100000000000000000000000000000000000000000000000000000000600052603260045260246000fd5b9060005260206000200181905550505b8460000160008581526020019081526020016000206000905584600101805480612f5b577f4e487b7100000000000000000000000000000000000000000000000000000000600052603160045260246000fd5b600190038181906000526020600020016000905590555050505050565b828054612f8490613db9565b90600052602060002090601f016020900481019282612fa65760008555612fed565b82601f10612fbf57805160ff1916838001178555612fed565b82800160010185558215612fed579182015b82811115612fec578251825591602001919060010190612fd1565b5b509050612ffa9190613062565b5090565b50805461300a90613db9565b6000825580601f1061301c575061303b565b601f01602090049060005260206000209081019061303a9190613062565b5b50565b508054600082556002029060005260206000209081019061305f919061307f565b50565b5b8082111561307b576000816000905550600101613063565b5090565b5b808211156130b657600080820160006101000a81549060ff02191690556001820160006130ad9190612ffe565b50600201613080565b5090565b60006130cd6130c884613b6e565b613b49565b9050828152602081018484840111156130e557600080fd5b6130f0848285613d4d565b509392505050565b6000813590506131078161429d565b92915050565b60008135905061311c816142b4565b92915050565b600081359050613131816142cb565b92915050565b600081359050613146816142e2565b92915050565b600082601f83011261315d57600080fd5b813561316d8482602086016130ba565b91505092915050565b600081359050613185816142f2565b92915050565b60006020828403121561319d57600080fd5b60006131ab848285016130f8565b91505092915050565b600080604083850312156131c757600080fd5b60006131d5858286016130f8565b92505060206131e68582860161310d565b9150509250929050565b60008060006060848603121561320557600080fd5b6000613213868287016130f8565b93505060206132248682870161310d565b925050604084013567ffffffffffffffff81111561324157600080fd5b61324d8682870161314c565b9150509250925092565b6000806040838503121561326a57600080fd5b6000613278858286016130f8565b925050602061328985828601613176565b9150509250929050565b6000602082840312156132a557600080fd5b60006132b38482850161310d565b91505092915050565b600080604083850312156132cf57600080fd5b60006132dd8582860161310d565b92505060206132ee858286016130f8565b9150509250929050565b60008060006060848603121561330d57600080fd5b600061331b8682870161310d565b935050602061332c86828701613137565b925050604084013567ffffffffffffffff81111561334957600080fd5b6133558682870161314c565b9150509250925092565b6000806040838503121561337257600080fd5b60006133808582860161310d565b925050602083013567ffffffffffffffff81111561339d57600080fd5b6133a98582860161314c565b9150509250929050565b600080600080608085870312156133c957600080fd5b60006133d78782880161310d565b945050602085013567ffffffffffffffff8111156133f457600080fd5b6134008782880161314c565b935050604061341187828801613176565b9250506060613422878288016130f8565b91505092959194509250565b60006020828403121561344057600080fd5b600061344e84828501613122565b91505092915050565b60006020828403121561346957600080fd5b600082013567ffffffffffffffff81111561348357600080fd5b61348f8482850161314c565b91505092915050565b6000602082840312156134aa57600080fd5b60006134b884828501613176565b91505092915050565b6134ca81613caa565b82525050565b6134e16134dc82613caa565b613e65565b82525050565b6134f081613cbc565b82525050565b6134ff81613cc8565b82525050565b61350e81613d3b565b82525050565b600061351f82613b9f565b6135298185613baa565b9350613539818560208601613d5c565b61354281613f4f565b840191505092915050565b600061355882613b9f565b6135628185613bbb565b9350613572818560208601613d5c565b80840191505092915050565b600061358b602083613baa565b915061359682613f6d565b602082019050919050565b60006135ae601883613baa565b91506135b982613f96565b602082019050919050565b60006135d1602c83613baa565b91506135dc82613fbf565b604082019050919050565b60006135f4602e83613baa565b91506135ff8261400e565b604082019050919050565b6000613617603283613baa565b91506136228261405d565b604082019050919050565b600061363a603083613baa565b9150613645826140ac565b604082019050919050565b600061365d602e83613baa565b9150613668826140fb565b604082019050919050565b6000613680602c83613baa565b915061368b8261414a565b604082019050919050565b60006136a3601783613bbb565b91506136ae82614199565b601782019050919050565b60006136c6603683613baa565b91506136d1826141c2565b604082019050919050565b60006136e9601183613bbb565b91506136f482614211565b601182019050919050565b600061370c602f83613baa565b91506137178261423a565b604082019050919050565b61372b81613d31565b82525050565b61374261373d82613d31565b613e89565b82525050565b600061375482856134d0565b6014820191506137648284613731565b6020820191508190509392505050565b600061377f82613696565b915061378b828561354d565b9150613796826136dc565b91506137a2828461354d565b91508190509392505050565b60006020820190506137c360008301846134c1565b92915050565b60006080820190506137de60008301876134c1565b6137eb60208301866134c1565b6137f860408301856134f6565b818103606083015261380a8184613514565b905095945050505050565b600060408201905061382a60008301856134c1565b6138376020830184613722565b9392505050565b600060208201905061385360008301846134e7565b92915050565b600060208201905061386e60008301846134f6565b92915050565b600060408201905061388960008301856134f6565b818103602083015261389b8184613514565b90509392505050565b60006060820190506138b960008301866134f6565b81810360208301526138cb8185613514565b90506138da6040830184613722565b949350505050565b600060c0820190506138f760008301896134f6565b81810360208301526139098188613514565b90506139186040830187613722565b61392560608301866134c1565b61393260808301856134c1565b61393f60a08301846134c1565b979650505050505050565b600060208201905061395f6000830184613505565b92915050565b600060408201905061397a6000830185613505565b818103602083015261398c8184613514565b90509392505050565b600060208201905081810360008301526139af8184613514565b905092915050565b600060208201905081810360008301526139d08161357e565b9050919050565b600060208201905081810360008301526139f0816135a1565b9050919050565b60006020820190508181036000830152613a10816135c4565b9050919050565b60006020820190508181036000830152613a30816135e7565b9050919050565b60006020820190508181036000830152613a508161360a565b9050919050565b60006020820190508181036000830152613a708161362d565b9050919050565b60006020820190508181036000830152613a9081613650565b9050919050565b60006020820190508181036000830152613ab081613673565b9050919050565b60006020820190508181036000830152613ad0816136b9565b9050919050565b60006020820190508181036000830152613af0816136ff565b9050919050565b6000602082019050613b0c6000830184613722565b92915050565b6000606082019050613b276000830186613722565b613b346020830185613722565b613b416040830184613722565b949350505050565b6000613b53613b64565b9050613b5f8282613deb565b919050565b6000604051905090565b600067ffffffffffffffff821115613b8957613b88613f20565b5b613b9282613f4f565b9050602081019050919050565b600081519050919050565b600082825260208201905092915050565b600081905092915050565b6000613bd182613d31565b9150613bdc83613d31565b9250827fffffffffffffffffffffffffffffffffffffffffffffffffffffffffffffffff03821115613c1157613c10613e93565b5b828201905092915050565b6000613c2782613d31565b9150613c3283613d31565b9250817fffffffffffffffffffffffffffffffffffffffffffffffffffffffffffffffff0483118215151615613c6b57613c6a613e93565b5b828202905092915050565b6000613c8182613d31565b9150613c8c83613d31565b925082821015613c9f57613c9e613e93565b5b828203905092915050565b6000613cb582613d11565b9050919050565b60008115159050919050565b6000819050919050565b60007fffffffff0000000000000000000000000000000000000000000000000000000082169050919050565b6000819050613d0c82614289565b919050565b600073ffffffffffffffffffffffffffffffffffffffff82169050919050565b6000819050919050565b6000613d4682613cfe565b9050919050565b82818337600083830152505050565b60005b83811015613d7a578082015181840152602081019050613d5f565b83811115613d89576000848401525b50505050565b6000613d9a82613d31565b91506000821415613dae57613dad613e93565b5b600182039050919050565b60006002820490506001821680613dd157607f821691505b60208210811415613de557613de4613ef1565b5b50919050565b613df482613f4f565b810181811067ffffffffffffffff82111715613e1357613e12613f20565b5b80604052505050565b6000613e2782613d31565b91507fffffffffffffffffffffffffffffffffffffffffffffffffffffffffffffffff821415613e5a57613e59613e93565b5b600182019050919050565b6000613e7082613e77565b9050919050565b6000613e8282613f60565b9050919050565b6000819050919050565b7f4e487b7100000000000000000000000000000000000000000000000000000000600052601160045260246000fd5b7f4e487b7100000000000000000000000000000000000000000000000000000000600052602160045260246000fd5b7f4e487b7100000000000000000000000000000000000000000000000000000000600052602260045260246000fd5b7f4e487b7100000000000000000000000000000000000000000000000000000000600052604160045260246000fd5b6000601f19601f8301169050919050565b60008160601b9050919050565b7f537472696e67733a20686578206c656e67746820696e73756666696369656e74600082015250565b7f756e6b6e6f776e2072656c6174696f6e73686970547970650000000000000000600082015250565b7f4661637469697653746f72652e63726561746552656c6174696f6e736869703a60008201527f20746f203d2073656e6465720000000000000000000000000000000000000000602082015250565b7f4661637469767653746f72652e5f757064617465417474657374696f6e54797060008201527f65203a20756e6b6e6f776e206964000000000000000000000000000000000000602082015250565b7f4661637469697653746f72652e757064617465417474657374696f6e203a207560008201527f6e6b6e6f776e206174746573746174696f6e0000000000000000000000000000602082015250565b7f4661637469697653746f72652e63726561746552656c6174696f6e736869702060008201527f3a20756e6b6e6f776e2074797065496400000000000000000000000000000000602082015250565b7f466163746969762e75706461746552656c6174696f6e73686970203a2070657260008201527f6d697373696f6e2064656e696564000000000000000000000000000000000000602082015250565b7f4661637469697653746f72652e61636365707452656c6174696f6e736869702060008201527f3a20756e6b6e6f776e2069640000000000000000000000000000000000000000602082015250565b7f416363657373436f6e74726f6c3a206163636f756e7420000000000000000000600082015250565b7f4661637469697653746f72652e63726561746552656c6174696f6e736869702060008201527f3a20616d6f756e742062656c6f77206d696e696d756d00000000000000000000602082015250565b7f206973206d697373696e6720726f6c6520000000000000000000000000000000600082015250565b7f416363657373436f6e74726f6c3a2063616e206f6e6c792072656e6f756e636560008201527f20726f6c657320666f722073656c660000000000000000000000000000000000602082015250565b6005811061429a57614299613ec2565b5b50565b6142a681613caa565b81146142b157600080fd5b50565b6142bd81613cc8565b81146142c857600080fd5b50565b6142d481613cd2565b81146142df57600080fd5b50565b600581106142ef57600080fd5b50565b6142fb81613d31565b811461430657600080fd5b5056fe4661637469697653746f72652e5f6372656174654174746573746174696f6e54797065203a206964206578697374734661637469697653746f72652e63726561746552656c6174696f6e73686970203a203530302028746f294661637469697653746f72652e63726561746552656c6174696f6e73686970203a20353030202866726f6d294661637469697653746f72652e5f6372656174654174746573746174696f6e203a20696420657869737473202875736572294661637469697653746f72652e5f6372656174654174746573746174696f6e203a206964206578697374734661637469697653746f72652e5f63726561746552656c6174696f6e7368697054797065203a206964206578697374734661637469697653746f72652e63726561746552656c6174696f6e73686970203a20696420657869737473a26469706673582212203f66964c61f9d4d07f98c5a4c1d000741d9ae6b3ab41ae88024d7b793ddb0b4e64736f6c63430008040033",
  "linkReferences": {},
  "deployedLinkReferences": {}
}